{
  "_format": "hh-sol-artifact-1",
  "contractName": "DIDRegistry",
  "sourceName": "contracts/DIDRegistry.sol",
  "abi": [
    {
      "anonymous": false,
      "inputs": [
        {
          "indexed": true,
          "internalType": "address",
          "name": "user",
          "type": "address"
        },
        {
          "indexed": false,
          "internalType": "string",
          "name": "did",
          "type": "string"
        }
      ],
      "name": "DIDRegistered",
      "type": "event"
    },
    {
      "inputs": [
        {
          "internalType": "address",
          "name": "_user",
          "type": "address"
        }
      ],
      "name": "getDID",
      "outputs": [
        {
          "internalType": "string",
          "name": "",
          "type": "string"
        }
      ],
      "stateMutability": "view",
      "type": "function"
    },
    {
      "inputs": [
        {
          "internalType": "string",
          "name": "_did",
          "type": "string"
        }
      ],
      "name": "registerDID",
      "outputs": [],
      "stateMutability": "nonpayable",
      "type": "function"
    }
  ],
  "bytecode": "0x6080604052348015600f57600080fd5b506108da8061001f6000396000f3fe608060405234801561001057600080fd5b50600436106100365760003560e01c8063570810e21461003b578063f64e30b014610057575b600080fd5b610055600480360381019061005091906103db565b610087565b005b610071600480360381019061006c9190610482565b6101b1565b60405161007e919061052e565b60405180910390f35b60008060003373ffffffffffffffffffffffffffffffffffffffff1673ffffffffffffffffffffffffffffffffffffffff16815260200190815260200160002080546100d29061057f565b905014610114576040517f08c379a000000000000000000000000000000000000000000000000000000000815260040161010b906105fc565b60405180910390fd5b806000803373ffffffffffffffffffffffffffffffffffffffff1673ffffffffffffffffffffffffffffffffffffffff168152602001908152602001600020908161015f91906107d2565b503373ffffffffffffffffffffffffffffffffffffffff167fbfab59a7af78dfc896c3096604749fcee2db2e850297de42de5e6369f54bd3fb826040516101a6919061052e565b60405180910390a250565b60606000808373ffffffffffffffffffffffffffffffffffffffff1673ffffffffffffffffffffffffffffffffffffffff16815260200190815260200160002080546101fc9061057f565b80601f01602080910402602001604051908101604052809291908181526020018280546102289061057f565b80156102755780601f1061024a57610100808354040283529160200191610275565b820191906000526020600020905b81548152906001019060200180831161025857829003601f168201915b50505050509050919050565b6000604051905090565b600080fd5b600080fd5b600080fd5b600080fd5b6000601f19601f8301169050919050565b7f4e487b7100000000000000000000000000000000000000000000000000000000600052604160045260246000fd5b6102e88261029f565b810181811067ffffffffffffffff82111715610307576103066102b0565b5b80604052505050565b600061031a610281565b905061032682826102df565b919050565b600067ffffffffffffffff821115610346576103456102b0565b5b61034f8261029f565b9050602081019050919050565b82818337600083830152505050565b600061037e6103798461032b565b610310565b90508281526020810184848401111561039a5761039961029a565b5b6103a584828561035c565b509392505050565b600082601f8301126103c2576103c1610295565b5b81356103d284826020860161036b565b91505092915050565b6000602082840312156103f1576103f061028b565b5b600082013567ffffffffffffffff81111561040f5761040e610290565b5b61041b848285016103ad565b91505092915050565b600073ffffffffffffffffffffffffffffffffffffffff82169050919050565b600061044f82610424565b9050919050565b61045f81610444565b811461046a57600080fd5b50565b60008135905061047c81610456565b92915050565b6000602082840312156104985761049761028b565b5b60006104a68482850161046d565b91505092915050565b600081519050919050565b600082825260208201905092915050565b60005b838110156104e95780820151818401526020810190506104ce565b60008484015250505050565b6000610500826104af565b61050a81856104ba565b935061051a8185602086016104cb565b6105238161029f565b840191505092915050565b6000602082019050818103600083015261054881846104f5565b905092915050565b7f4e487b7100000000000000000000000000000000000000000000000000000000600052602260045260246000fd5b6000600282049050600182168061059757607f821691505b6020821081036105aa576105a9610550565b5b50919050565b7f44494420616c7265616479207265676973746572656400000000000000000000600082015250565b60006105e66016836104ba565b91506105f1826105b0565b602082019050919050565b60006020820190508181036000830152610615816105d9565b9050919050565b60008190508160005260206000209050919050565b60006020601f8301049050919050565b600082821b905092915050565b60006008830261067e7fffffffffffffffffffffffffffffffffffffffffffffffffffffffffffffffff82610641565b6106888683610641565b95508019841693508086168417925050509392505050565b6000819050919050565b6000819050919050565b60006106cf6106ca6106c5846106a0565b6106aa565b6106a0565b9050919050565b6000819050919050565b6106e9836106b4565b6106fd6106f5826106d6565b84845461064e565b825550505050565b600090565b610712610705565b61071d8184846106e0565b505050565b5b818110156107415761073660008261070a565b600181019050610723565b5050565b601f821115610786576107578161061c565b61076084610631565b8101602085101561076f578190505b61078361077b85610631565b830182610722565b50505b505050565b600082821c905092915050565b60006107a96000198460080261078b565b1980831691505092915050565b60006107c28383610798565b9150826002028217905092915050565b6107db826104af565b67ffffffffffffffff8111156107f4576107f36102b0565b5b6107fe825461057f565b610809828285610745565b600060209050601f83116001811461083c576000841561082a578287015190505b61083485826107b6565b86555061089c565b601f19841661084a8661061c565b60005b828110156108725784890151825560018201915060208501945060208101905061084d565b8683101561088f578489015161088b601f891682610798565b8355505b6001600288020188555050505b50505050505056fea26469706673582212204247c41a3fdf38556903fca5a063e393962f3fc0c99005e42f969eecea64a85b64736f6c634300081c0033",
  "linkReferences": {},
  "deployedLinkReferences": {}
}